S00D0000536C6176652E737265631C
S11300000C942A000C9447000C9447000C9447006D
S11300100C9447000C9447000C9447000C94470040
S11300200C9447000C9447000C9447000C94470030
S11300300C9447000C9447000C9447000C94470020
S11300400C9447000C9447000C9447000C94470010
S11300500C94470011241FBECFE5D8E0DEBFCDBF0E
S113006010E0A0E6B0E0E2EDF7E002C005900D92EA
S1130070A83AB107D9F720E0A8EAB0E001C01D9280
S1130080A93AB207E1F70E946F020C94E7030C94BB
S11300900000442319F04130C9F10895813091F0F2
S11300A028F08230D9F0833029F108952AB381E011
S11300B090E002C0880F991F6A95E2F78095822329
S11300C08ABB089527B381E090E002C0880F991F8E
S11300D06A95E2F78095822387BB089524B381E073
S11300E090E002C0880F991F6A95E2F780958223F9
S11300F084BB089521B381E090E002C0880F991F6A
S11301006A95E2F78095822381BB0895813089F056
S113011028F08230C9F0833011F108952AB381E0C8
S113012090E002C0880F991F6A95E2F7822B8ABB80
S1130130089527B381E090E002C0880F991F6A9563
S1130140E2F7822B87BB089524B381E090E002C0DC
S1130150880F991F6A95E2F7822B84BB089521B317
S113016081E090E002C0880F991F6A95E2F7822B24
S113017081BB0895442319F04130C9F108958130B9
S113018091F028F08230D9F0833029F108952BB30F
S113019081E090E002C0880F991F6A95E2F780958C
S11301A082238BBB089528B381E090E002C0880FBE
S11301B0991F6A95E2F78095822388BB089525B339
S11301C081E090E002C0880F991F6A95E2F780955C
S11301D0822385BB089522B381E090E002C0880F9A
S11301E0991F6A95E2F78095822382BB0895813036
S11301F089F028F08230C9F0833011F108952BB3CF
S113020081E090E002C0880F991F6A95E2F7822B83
S11302108BBB089528B381E090E002C0880F991F3A
S11302206A95E2F7822B88BB089525B381E090E0BC
S113023002C0880F991F6A95E2F7822B85BB089547
S113024022B381E090E002C0880F991F6A95E2F71B
S1130250822B82BB0895813089F028F08230C9F066
S1130260833011F108952BB381E090E002C0880F30
S1130270991F6A95E2F782278BBB089528B381E022
S113028090E002C0880F991F6A95E2F7822788BB25
S1130290089525B381E090E002C0880F991F6A9504
S11302A0E2F7822785BB089522B381E090E002C083
S11302B0880F991F6A95E2F7822782BB0895CF932E
S11302C0C82F40E061E081E00E94BA0040E062E0B3
S11302D081E00E94BA0040E063E081E00E94BA003D
S11302E08BB39C2F907F8F70892B8BBB41E063E095
S11302F081E00E94BA008FE99FE00197F1F700C006
S1130300000040E063E081E00E94BA0020E1C29F67
S1130310C00111249BB39F70892B8BBB41E063E028
S113032081E00E94BA008FE99FE00197F1F700C0D5
S1130330000040E063E081E00E94BA008FE39FE1A7
S11303400197F1F700C00000CF91089541E061E00A
S113035081E00E94490041E062E081E00E9449009E
S113036041E063E081E00E94490041E064E080E014
S11303700E94490041E065E080E00E94490041E0BC
S113038066E080E00E94490041E067E080E00E946E
S113039049002FEF81EE94E0215080409040E1F736
S11303A000C0000082E00E945F0183E30E945F01BD
S11303B082E30E945F0188E20E945F018CE00E9458
S11303C05F0181E00E945F0186E00E945F018FE38C
S11303D09CE90197F1F700C00000089581E00E94B4
S11303E05F010895CF93C82F41E061E081E00E944E
S11303F0BA0040E062E081E00E94BA0040E063E0BD
S113040081E00E94BA008BB39C2F907F8F70892B60
S11304108BBB41E063E081E00E94BA008FE99FE07A
S11304200197F1F700C0000040E063E081E00E9422
S1130430BA0020E1C29FC00111249BB39F70892B95
S11304408BBB41E063E081E00E94BA008FE99FE04A
S11304500197F1F700C0000040E063E081E00E94F2
S1130460BA008FE39FE10197F1F700C00000CF913C
S11304700895CF93DF93EC0103C00E94F20121960B
S113048088818111FACFDF91CF910895CF93DF93C3
S1130490CDB7DEB72A970FB6F894DEBF0FBECDBF37
S11304A02AE030E0AE014F5F5F4F0E949B03CE0114
S11304B001960E9439022A960FB6F894DEBF0FBE49
S11304C0CDBFDF91CF91089541E062E082E00E94C8
S11304D04900089562E082E00E942B0108950E9481
S11304E0A6010E94EE018091A800823009F451C057
S11304F028F4882351F0813049F1F5CF833009F491
S11305006CC0843009F48CC0EECF0E94EE0180E60A
S113051090E00E9439026091A80070E080E090E0D1
S11305200E94460280EC0E945F0186E690E00E94F1
S1130530390281E08093A8002FEF87EA91E62150E9
S113054080409040E1F700C00000CDCF0E94EE0152
S113055080E690E00E9439026091A80070E080E09B
S113056090E00E94460280EC0E945F0180E790E0E8
S11305700E9439020E94640282E08093A8002FEF57
S113058089E698E1215080409040E1F700C00000E6
S1130590AACF0E94EE0180E690E00E9439026091A9
S11305A0A80070E080E090E00E94460280EC0E9487
S11305B05F018FE790E00E94390281E00E944103CD
S11305C083E08093A8002FEF89E698E121508040D2
S11305D09040E1F700C0000086CF0E94EE0180E663
S11305E090E00E9439026091A80070E080E090E001
S11305F00E94460280EC0E945F018FE890E00E9416
S113060039020E9488032FEF89E698E12150804047
S11306109040E1F700C0000084E08093A80063CF1D
S11306200E94EE0180E690E00E9439026091A800E9
S113063070E080E090E00E94460280EC0E945F013E
S11306408DE990E00E943902C0E00E949703813056
S113065019F0813699F0F9CFC11107C00E946703E0
S113066080E00E946C03C1E0F0CFC13071F70E94BA
S1130670670381E00E946C03C0E0E7CF0E946A0236
S1130680E4CF882319F0813089F01FC041E064E091
S113069083E00E94490041E063E082E00E94490057
S11306A041E064E082E00E9449000FC041E065E05F
S11306B083E00E94490041E065E082E00E94490035
S11306C041E066E082E00E94490081E0089582B33F
S11306D0806182BB81E00895813059F018F0833045
S11306E079F014C085B3886085BB85B38F7E85BBE4
S11306F00DC085B3806185BB85B3877F85BB06C08C
S113070085B3877F85BB85B38F7E85BB81E00895E4
S113071087B38F7D87BB87B3806487BB87B38F77AD
S113072087BB87B38F7E87BB83E48DB90895779B9E
S1130730FECF8FB108952532310520F4223010F018
S11307400C94A603FA011082CA010895BB272A302B
S113075051F4992342F4BDE290958095709561958A
S11307607F4F8F4F9F4F0C94B603BB27FA01A62FE0
S11307706217710581059105330B30FB66F0AA27DA
S1130780660F771F881F991FAA1FA21710F0A21BBC
S113079063953850A9F7A05DAA3308F0A95DA19329
S11307A036F7B111B1931082CA010C94D703DC015E
S11307B0FC01672F71917723E1F7329704C07C9194
S11307C06D9370836291AE17BF07C8F30895F894D0
S10507D0FFCF55
S11307D2537461746500656C203327616C6C790015
S11307E24C4544305F496E697469616C697A004DA5
S11307F26F746F725F496E697469616C697A0053D0
S113080270695F696E7469616C697A6500537069B5
S10B08125F72657369766500ED
S9030000FC
