S00E00004D61737465722E73726563AA
S11300000C9433000C9450000C9450000C94500049
S11300100C9450000C9450000C9450000C9450001C
S11300200C9450000C9450000C9450000C9450000C
S11300300C9450000C94DB030C9450000C9450006E
S11300400C9450000C9450000C9450000C945000EC
S11300500C9450008402A502C802EC020F034D0365
S113006074038E03B20311241FBECFE5D8E0DEBFB4
S1130070CDBF10E0A0E6B0E0E4ECF8E002C00590EB
S11300800D92A63EB107D9F720E0A6EEB0E001C07C
S11300901D92AB3EB207E1F70E9478020C94600413
S11300A00C940000442319F04130C9F108958130C3
S11300B091F028F08230D9F0833029F108952AB3E1
S11300C081E090E002C0880F991F6A95E2F780955D
S11300D082238ABB089527B381E090E002C0880F91
S11300E0991F6A95E2F78095822387BB089524B30C
S11300F081E090E002C0880F991F6A95E2F780952D
S1130100822384BB089521B381E090E002C0880F6C
S1130110991F6A95E2F78095822381BB0895813007
S113012089F028F08230C9F0833011F108952AB3A0
S113013081E090E002C0880F991F6A95E2F7822B54
S11301408ABB089527B381E090E002C0880F991F0D
S11301506A95E2F7822B87BB089524B381E090E08F
S113016002C0880F991F6A95E2F7822B84BB089519
S113017021B381E090E002C0880F991F6A95E2F7ED
S1130180822B81BB0895442319F04130C9F10895AD
S1130190813091F028F08230D9F0833029F108952C
S11301A02BB381E090E002C0880F991F6A95E2F7B3
S11301B0809582238BBB089528B381E090E002C030
S11301C0880F991F6A95E2F78095822388BB08956A
S11301D025B381E090E002C0880F991F6A95E2F789
S11301E08095822385BB089522B381E090E002C00C
S11301F0880F991F6A95E2F78095822382BB089540
S1130200813089F028F08230C9F0833011F10895EB
S11302102BB381E090E002C0880F991F6A95E2F742
S1130220822B8BBB089528B381E090E002C0880F35
S1130230991F6A95E2F7822B88BB089525B381E064
S113024090E002C0880F991F6A95E2F7822B85BB64
S1130250089522B381E090E002C0880F991F6A9547
S1130260E2F7822B82BB0895813079F028F0823046
S1130270A9F08330E1F024C089B390E002C09595E1
S113028087956A95E2F78170089586B390E002C07D
S1130290959587956A95E2F78170089583B390E008
S11302A002C0959587956A95E2F78170089580B3A9
S11302B090E002C0959587956A95E2F7817008955C
S11302C080E0089540E060E081E00E9452000895DB
S11302D060E081E00E9434010895CF93C82F40E08C
S11302E061E081E00E94C30040E062E081E00E949E
S11302F0C30040E063E081E00E94C3008BB39C2F05
S1130300907F8F70892B8BBB41E063E081E00E947A
S1130310C3008FE99FE00197F1F700C0000040E0BF
S113032063E081E00E94C30020E1C29FC001112468
S11303309BB39F70892B8BBB41E063E081E00E94FB
S1130340C3008FE99FE00197F1F700C0000040E08F
S113035063E081E00E94C3008FE39FE10197F1F71E
S113036000C00000CF91089541E061E081E00E9467
S1130370520041E062E081E00E94520041E063E00B
S113038081E00E94520041E064E080E00E9452005B
S113039041E065E080E00E94520041E066E080E0D8
S11303A00E94520041E067E080E00E9452002FEF7B
S11303B081EE94E0215080409040E1F700C00000BD
S11303C082E00E946D0183E30E946D0182E30E943A
S11303D06D0188E20E946D018CE00E946D0181E054
S11303E00E946D0186E00E946D018FE39CE90197F4
S11303F0F1F700C00000089581E00E946D010895A6
S1130400CF93C82F41E061E081E00E94C30040E047
S113041062E081E00E94C30040E063E081E00E946A
S1130420C3008BB39C2F907F8F70892B8BBB41E0D3
S113043063E081E00E94C3008FE99FE00197F1F738
S113044000C0000040E063E081E00E94C30020E1BE
S1130450C29FC00111249BB39F70892B8BBB41E0C9
S113046063E081E00E94C3008FE99FE00197F1F708
S113047000C0000040E063E081E00E94C3008FE31D
S11304809FE10197F1F700C00000CF910895CF9349
S1130490DF93EC0103C00E94000221968881811140
S11304A0FACFDF91CF910895CF93DF93CDB7DEB725
S11304B02A970FB6F894DEBF0FBECDBF2AE030E016
S11304C0AE014F5F5F4F0E941404CE0101960E945B
S11304D047022A960FB6F894DEBF0FBECDBFDF9158
S11304E0CF91089541E062E082E00E9452000895B5
S11304F00E94B401E091EA00F0E0E930F105D0F7A0
S1130500E65DFF4F0C940E040E94FC0180E690E02F
S11305100E9447026091EA0070E080E090E00E944F
S1130520540280EC0E946D0186E690E00E9447022E
S113053081E08093EA002FEF87EA91E62150804022
S11305409040E1F700C00000D5CF0E94FC0180E696
S113055090E00E9447026091EA0070E080E090E041
S11305600E94540280EC0E946D018FE690E00E948C
S113057047020E94720282E08093EA002FEF89E62C
S113058098E1215080409040E1F700C00000B2CFD4
S11305900E94FC0180E690E00E9447026091EA001C
S11305A070E080E090E00E94540280EC0E946D01B3
S11305B08EE790E00E9447020E940004789483E052
S11305C08093EA002FEF89E698E121508040904023
S11305D0E1F700C000008ECF0E94FC0180E690E0AD
S11305E00E9447026091EA0070E080E090E00E947F
S11305F0540280EC0E946D0181E990E00E94470260
S11306000E94620184E08093EA002FEF89E698E17A
S1130610215080409040E1F700C000006BCF0E9461
S1130620FC0180E690E00E9447026091EA0070E0DD
S113063080E090E00E94540280EC0E946D0185EA03
S113064090E00E9447020E946801813059F40E94A0
S113065068018130E1F385E08093EA0081E08093D2
S1130660E80011C08091E900882321F085E080939F
S1130670EA0009C08091E6009091E700892B19F007
S113068085E08093EA002FEF80E792E021508040DC
S11306909040E1F700C000002DCF0E94FC0180E6ED
S11306A090E00E9447026091EA0070E080E090E0F0
S11306B00E94540280EC0E946D0184EB90E00E9441
S11306C047028091E90081110BC08091E8008111FB
S11306D007C08091E6009091E700892B09F40ACFC6
S11306E086E08093EA0006CF0E94FC0180E690E059
S11306F00E9447026091EA0070E080E090E00E946E
S1130700540280EC0E946D0181EC90E00E9447024B
S11307100E94EA0387E08093EA00ECCE0E94FC0189
S113072080E690E00E9447026091EA0070E080E079
S113073090E00E94540280EC0E946D018FEC90E0E6
S11307400E9447028091E900882319F00E94FC036B
S113075005C08091E80081110E94FC0388E0809329
S1130760EA00C8CE0E94FC0180E690E00E944702A5
S11307706091EA0070E080E090E00E94540280EC16
S11307800E946D018CED90E00E9447022FEF89E6F4
S113079098E1215080409040E1F700C000001092A1
S11307A0E9001092E8001092E7001092E60084E05D
S11307B08093EA009FCE1F920F920FB60F921124DE
S11307C08F938CB18093E9008F910F900FBE0F909F
S11307D01F90189587B3806287BB87B38F7B87BBD5
S11307E087B3806887BB87B3806187BB8EB18E7FF8
S11307F08EB983E58DB908958FB9779BFECF08959F
S113080081B3826081BB81B38E7F81BB88E98AB961
S113081086E880BD87E689B910BC0895EE0FFF1FF6
S11308200590F491E02D09942532310520F422300D
S113083010F00C941F04FA011082CA010895BB271A
S11308402A3051F4992342F4BDE290958095709535
S113085061957F4F8F4F9F4F0C942F04BB27FA0154
S1130860A62F6217710581059105330B30FB66F0E5
S1130870AA27660F771F881F991FAA1FA21710F0B7
S1130880A21B63953850A9F7A05DAA3308F0A95DAF
S1130890A19336F7B111B1931082CA010C9450049C
S11308A0DC01FC01672F71917723E1F7329704C0D3
S11308B07C916D9370836291AE17BF07C8F308955E
S10708C0F894FFCFD6
S11308C45374617465005374617274696E67004C87
S11308D44544305F496E697469616C697A005553A3
S11308E44152545F496E69616C697A6174696F6ECF
S11308F400427574746F6E5F496E69616C697A61E4
S113090474696F6E00627574746F6E2077616974B4
S1130914696E670052656369657665206461746114
S1130924005370695F696E7469616C697A65005318
S113093470695F7472616E736D6974004E65775F7C
S10909445374617274009B
S9030000FC
